:020000040800F2
:100000000050002079050008250500082D0500088E
:10001000350500083D050008450500080000000002
:1000200000000000000000000000000001260008A1
:100030004D05000800000000E127000829280008FD
:10004000C1050008C1050008C1050008C105000878
:10005000C1050008C1050008C1050008C105000868
:10006000C1050008C1050008C1050008C105000858
:10007000C1050008C1050008C1050008C105000848
:10008000C1050008C1050008C1050008C105000838
:10009000C1050008C1050008C1050008C105000828
:1000A000C1050008C1050008C1050008C105000818
:1000B000C105000859050008C1050008C105000870
:1000C000C1050008C1050008C1050008C1050008F8
:1000D000C1050008C1050008C1050008C1050008E8
:1000E000C1050008C1050008C105000800000000A6
:1000F0000000000000000000000000000000000000
:0C01000000000000000000005FF808F1A3
:1001100010B5054C237833B9044B13B10448AFF341
:1001200000800123237010BD60000020000000004B
:100130001C2E000808B5034B1BB103490348AFF35D
:10014000008008BD00000000640000201C2E000894
:1001500080B485B000AFF860B9607A60FB68064A89
:100160001A60BB68054A1A607B6880221A6000BF6B
:100170001437BD4680BC70477C0000201C01002065
:10018000B0B596B000AF00F01DFA00F049F800F0ED
:100190008DF81D4B07F13C041D460FCD0FC495E8AB
:1001A000070084E8070007F13C030021184601F02E
:1001B00065FB0346154A1360154B07F120041D46E5
:1001C0000FCD0FC495E8070084E8070007F120036E
:1001D0000021184601F052FB03460E4A13600E4BF5
:1001E0003C1D1D460FCD0FC495E8070084E80700AD
:1001F0003B1D0021184601F041FB0346074A1360EE
:1002000001F035FB00BFFDE73C2E00081C03002079
:10021000642E000820030020882E000824030020FC
:1002200080B590B000AF07F11803282200211846CE
:1002300002F01CFD3B1D00221A605A609A60DA60D1
:100240001A610123BB614FF48033FB6100233B62E1
:100250000123BB6202237B634FF48033BB634FF403
:10026000E013FB6307F11803184600F073FC034624
:10027000002B01D000F09AF80F237B600223BB60B3
:100280000023FB604FF480633B6100237B613B1DD7
:100290000221184600F0E0FE0346002B01D000F0DA
:1002A00085F800BF4037BD4680BD000080B586B0F0
:1002B00000AF07F1080300221A605A609A60DA6002
:1002C000174B9B69164A43F020039361144B9B69BB
:1002D00003F020037B607B68114B9B69104A43F05D
:1002E000040393610E4B9B6903F004033B603B687E
:1002F00000221C210B4800F0FBFB1C23BB600123E8
:10030000FB6000233B6102237B6107F10803194670
:10031000044800F069FA00BF1837BD4680BD00BF31
:10032000001002400008014080B582B000AF786044
:100330000421044800F0F4FBC82001F0EBFA00BFF0
:10034000F6E700BF0008014080B582B000AF7860DA
:100350000821044800F0E4FB4FF4967001F0DAFA4B
:1003600000BFF5E70008014080B582B000AF7860BB
:100370001021044800F0D4FB4FF42F7001F0CAFAAA
:1003800000BFF5E70008014080B582B000AF78609B
:100390007B681B68044A934201D100F029F900BF31
:1003A0000837BD4680BD00BF0004004080B400AFE8
:1003B00072B600BF00BFFDE780B584B000AF184B38
:1003C0009B69174A43F001039361154B9B6903F046
:1003D0000103BB60BB68124BDB69114A43F08053D9
:1003E000D3610F4BDB6903F080537B607B68002295
:1003F0000F216FF0010000F0CCF90A4B5B68FB6045
:10040000FB6823F0E063FB60FB6843F00073FB6074
:10041000044AFB68536000BF1037BD4680BD00BF73
:10042000001002400000014080B58EB000AF78603F
:100430000023FB620023BB62002387F83330344B78
:10044000DB69334A43F00203D361314BDB6903F0CC
:100450000203FB60FB6807F1100207F11403114669
:10046000184600F055FF3B6AFB62FB6A002B03D184
:1004700000F03AFF786304E000F036FF03465B00CB
:100480007B637B6B234AA2FB03239B0C013BBB6278
:10049000214B224A1A60204B40F2E732DA601E4AB2
:1004A000BB6A53601C4B00221A611B4B00229A60EE
:1004B000194B00229A61184800F078FF034687F82C
:1004C000333097F83330002B1BD1134800F0C6FFB0
:1004D000034687F8333097F83330002B11D11D20B5
:1004E00000F073F97B680F2B08D8002279681D2073
:1004F00000F04FF90A4A7B68136002E0012387F895
:10050000333097F8333018463837BD4680BD00BFCA
:100510000010024083DE1B4328030020000400403B
:100520000400002080B400AF00BFFDE780B400AF3E
:1005300000BFFDE780B400AF00BFFDE780B400AFAF
:1005400000BFFDE780B400AF00BFFDE780B400AF9F
:1005500000BFBD4680BC704780B500AF024800F0C8
:10056000CFFF00BF80BD00BF2803002080B400AFD4
:1005700000BFBD4680BC7047FFF7F8FF0B480C4931
:100580000C4A002302E0D458C4500433C4188C42EF
:10059000F9D3094A094C002301E013600432A24256
:1005A000FBD302F0C1FBFFF7EBFD7047000000201A
:1005B00060000020E02E00086000002000120020F3
:1005C000FEE7000080B500AF084B1B68074A43F008
:1005D00010031360032000F0D1F80F20FFF724FF71
:1005E000FFF7EAFE0023184680BD00BF002002404E
:1005F00080B400AF054B1B781A46054B1B681344AB
:10060000034A136000BFBD4680BC7047080000204D
:100610007003002080B400AF024B1B681846BD4633
:1006200080BC70477003002080B485B000AF786054
:100630007B6803F00703FB600C4BDB68BB60BA68A8
:100640004FF6FF031340BB60FB681A02BB681343FD
:1006500043F0BF6343F40033BB60044ABB68D3601C
:1006600000BF1437BD4680BC704700BF00ED00E0FE
:1006700080B400AF044BDB681B0A03F00703184685
:10068000BD4680BC704700BF00ED00E080B483B081
:1006900000AF0346FB7197F90730002B0BDBFB79AA
:1006A00003F01F02064997F907305B09012000FAA1
:1006B00002F241F8232000BF0C37BD4680BC7047D2
:1006C00000E100E080B483B000AF03463960FB7105
:1006D00097F90730002B0ADB3B68DAB20C4997F92F
:1006E00007301201D2B20B4483F800230AE03B68C2
:1006F000DAB20849FB7903F00F03043B1201D2B2CE
:100700000B441A7600BF0C37BD4680BC704700BF53
:1007100000E100E000ED00E080B489B000AFF860D7
:10072000B9607A60FB6803F00703FB61FB69C3F102
:100730000703042B28BF0423BB61FB690433062B8A
:1007400002D9FB69033B00E000237B614FF0FF32DD
:10075000BB6902FA03F3DA43BB681A407B699A402B
:100760004FF0FF317B6901FA03F3D9437B680B40FB
:10077000134318462437BD4680BC704780B582B00D
:1007800000AF78607868FFF74FFF00BF0837BD46BD
:1007900080BD80B586B000AF0346B9607A60FB7358
:1007A00000237B61FFF764FF78617A68B968786934
:1007B000FFF7B2FF024697F90F3011461846FFF7D0
:1007C00081FF00BF1837BD4680BD80B582B000AF45
:1007D0000346FB7197F907301846FFF757FF00BF34
:1007E0000837BD4680BD000080B48BB000AF786094
:1007F000396000237B6200233B6269E101227B6A4E
:1008000002FA03F3FB613B681B68FA691340BB61A2
:10081000BA69FB699A4240F058813B685B689A4A22
:1008200093425ED0984A934275D8984A934258D0E2
:10083000964A93426FD8964A934252D0944A934232
:1008400069D8944A93424CD0924A934263D8924AD0
:10085000934246D0904A93425DD8122B2AD8122B4D
:1008600059D801A252F823F0E3080008BD08000897
:10087000CF08000811090008170900081709000827
:1008800017090008170900081709000817090008C8
:1008900017090008170900081709000817090008B8
:1008A000170900081709000817090008C5080008FB
:1008B000D9080008794A934213D02CE03B68DB68E2
:1008C0003B6229E03B68DB6804333B6224E03B6821
:1008D000DB6808333B621FE03B68DB680C333B623C
:1008E0001AE03B689B68002B02D104233B6213E0B3
:1008F0003B689B68012B05D108233B627B68FA6942
:100900001A6109E008233B627B68FA695A6103E0D7
:1009100000233B6200E000BFBB69FF2B01D87B686E
:1009200001E07B6804337B61BB69FF2B02D87B6AE3
:100930009B0002E07B6A083B9B003B617B691A6875
:100940000F213B6901FA03F3DB431A40396A3B6923
:1009500001FA03F31A437B691A603B685B6803F092
:100960008053002B00F0B1804D4B9B694C4A43F003
:10097000010393614A4B9B6903F00103BB60BB68B1
:10098000484A7B6A9B08023352F82330FB607B6A3B
:1009900003F003039B000F2202FA03F3DB43FA6820
:1009A0001340FB607B68404A934213D07B683F4A08
:1009B00093420DD07B683E4A934207D07B683D4A04
:1009C000934201D1032306E0042304E0022302E062
:1009D000012300E000237A6A02F0030292009340B0
:1009E000FA681343FB602F497B6A9B080233FA685D
:1009F00041F823203B685B6803F48013002B06D08A
:100A00002D4B9A682C49BB6913438B6006E02A4B37
:100A10009A68BB69DB43284913408B603B685B687D
:100A200003F40013002B06D0234BDA682249BB697C
:100A30001343CB6006E0204BDA68BB69DB431E49F9
:100A40001340CB603B685B6803F40033002B06D097
:100A5000194B5A681849BB6913434B6006E0164BA3
:100A60005A68BB69DB43144913404B603B685B68C1
:100A700003F48033002B21D00F4B1A680E49BB6959
:100A800013430B6021E000BF000032100000311062
:100A900000002210000021100000121000001110B0
:100AA000001002400000014000080140000C01401D
:100AB0000010014000140140000401400B4B1A6873
:100AC000BB69DB43094913400B607B6A01337B62DE
:100AD0003B681A687B6A22FA03F3002B7FF48EAE20
:100AE00000BF00BF2C37BD4680BC704700040140EA
:100AF00080B483B000AF78600B467B8013467B7078
:100B00007B78002B03D07A887B681A6103E07B88AE
:100B10001A047B681A6100BF0C37BD4680BC704761
:100B200080B485B000AF78600B467B807B68DB6863
:100B3000FB607A88FB6813401A04FB68D9437B8802
:100B40000B401A437B681A6100BF1437BD4680BC56
:100B50007047000080B586B000AF78607B68002BDE
:100B600001D1012372E27B681B6803F00103002BB3
:100B700000F08780924B5B6803F00C03042B0CD0D1
:100B80008F4B5B6803F00C03082B12D18C4B5B6816
:100B900003F48033B3F5803F0BD1894B1B6803F41A
:100BA0000033002B6CD07B685B68002B68D101237D
:100BB0004CE27B685B68B3F5803F06D1804B1B68D5
:100BC0007F4A43F4803313602EE07B685B68002B20
:100BD0000CD17B4B1B687A4A23F480331360784B2B
:100BE0001B68774A23F4802313601DE07B685B68F1
:100BF000B3F5A02F0CD1724B1B68714A43F48023CC
:100C000013606F4B1B686E4A43F4803313600BE034
:100C10006B4B1B686A4A23F480331360684B1B6874
:100C2000674A23F4802313607B685B68002B13D032
:100C3000FFF7F0FC386108E0FFF7ECFC02463B6987
:100C4000D31A642B01D9032300E25D4B1B6803F424
:100C50000033002BF0D014E0FFF7DCFC386108E033
:100C6000FFF7D8FC02463B69D31A642B01D9032352
:100C7000ECE1534B1B6803F40033002BF0D100E090
:100C800000BF7B681B6803F00203002B63D04C4B52
:100C90005B6803F00C03002B0BD0494B5B6803F03F
:100CA0000C03082B1CD1464B5B6803F48033002BEC
:100CB00016D1434B1B6803F00203002B05D07B6861
:100CC0001B69012B01D00123C0E13D4B1B6823F0C0
:100CD000F8027B685B69DB00394913430B603AE03B
:100CE0007B681B69002B20D0364B01221A60FFF76E
:100CF00091FC386108E0FFF78DFC02463B69D31A8E
:100D0000022B01D90323A1E12D4B1B6803F0020341
:100D1000002BF0D02A4B1B6823F0F8027B685B693C
:100D2000DB00274913430B6015E0264B00221A60B5
:100D3000FFF770FC386108E0FFF76CFC02463B6986
:100D4000D31A022B01D9032380E11D4B1B6803F04A
:100D50000203002BF0D17B681B6803F00803002B13
:100D60003AD07B689B69002B19D0174B01221A607F
:100D7000FFF750FC386108E0FFF74CFC02463B6986
:100D8000D31A022B01D9032360E10D4B5B6A03F0F8
:100D90000203002BF0D0012000F0EAFA1CE00A4B1D
:100DA00000221A60FFF736FC38610FE0FFF732FCD3
:100DB00002463B69D31A022B08D9032346E100BF40
:100DC000001002400000424280044242924B5B6AA3
:100DD00003F00203002BE9D17B681B6803F00403D6
:100DE000002B00F0A6800023FB758B4BDB6903F022
:100DF0008053002B0DD1884BDB69874A43F0805329
:100E0000D361854BDB6903F08053BB60BB68012372
:100E1000FB75824B1B6803F48073002B18D17F4B4A
:100E20001B687E4A43F480731360FFF7F3FB38615D
:100E300008E0FFF7EFFB02463B69D31A642B01D9A8
:100E4000032303E1754B1B6803F48073002BF0D080
:100E50007B68DB68012B06D16F4B1B6A6E4A43F03F
:100E6000010313622DE07B68DB68002B0CD16A4B19
:100E70001B6A694A23F001031362674B1B6A664AC7
:100E800023F0040313621CE07B68DB68052B0CD1A4
:100E9000614B1B6A604A43F0040313625E4B1B6A9A
:100EA0005D4A43F0010313620BE05B4B1B6A5A4A35
:100EB00023F001031362584B1B6A574A23F00403C3
:100EC00013627B68DB68002B15D0FFF7A3FB38614A
:100ED0000AE0FFF79FFB02463B69D31A41F28832D2
:100EE000934201D90323B1E04B4B1B6A03F0020389
:100EF000002BEED014E0FFF78DFB38610AE0FFF71E
:100F000089FB02463B69D31A41F28832934201D9E8
:100F100003239BE0404B1B6A03F00203002BEED13E
:100F2000FB7D012B05D13C4BDB693B4A23F0805311
:100F3000D3617B68DB69002B00F08780364B5B68F0
:100F400003F00C03082B61D07B68DB69022B46D1D0
:100F5000334B00221A60FFF75DFB386108E0FFF7B2
:100F600059FB02463B69D31A022B01D903236DE0DA
:100F7000294B1B6803F00073002BF0D17B681B6AC0
:100F8000B3F5803F08D1244B5B6823F400327B68C3
:100F90009B68214913434B601F4B5B6823F4741219
:100FA0007B68196A7B685B6A0B431B4913434B6080
:100FB0001B4B01221A60FFF72DFB386108E0FFF799
:100FC00029FB02463B69D31A022B01D903233DE0DA
:100FD000114B1B6803F00073002BF0D035E0104B71
:100FE00000221A60FFF716FB386108E0FFF712FBDA
:100FF00002463B69D31A022B01D9032326E0064B94
:101000001B6803F00073002BF0D11EE07B68DB69E6
:10101000012B07D1012319E00010024000700040AD
:10102000600042420B4B5B68FB60FB6803F480325C
:101030007B681B6A9A4206D1FB6803F470127B68D6
:101040005B6A9A4201D0012300E00023184618375A
:10105000BD4680BD0010024080B584B000AF78600E
:1010600039607B68002B01D10123D0E06A4B1B68FB
:1010700003F007033A689A4210D9674B1B6823F0C4
:10108000070265493B6813430B60634B1B6803F021
:1010900007033A689A4201D00123B8E07B681B68D5
:1010A00003F00203002B20D07B681B6803F00403CD
:1010B000002B05D0594B5B68584A43F4E0635360FA
:1010C0007B681B6803F00803002B05D0534B5B685B
:1010D000524A43F460535360504B5B6823F0F00274
:1010E0007B689B684D4913434B607B681B6803F02A
:1010F0000103002B40D07B685B68012B07D1474B75
:101100001B6803F40033002B15D101237FE07B68BB
:101110005B68022B07D1414B1B6803F00073002B67
:1011200009D1012373E03D4B1B6803F00203002B40
:1011300001D101236BE0394B5B6823F003027B682C
:101140005B68364913434B60FFF764FAF8600AE0C6
:10115000FFF760FA0246FB68D31A41F288329342E5
:1011600001D9032353E02D4B5B6803F00C027B682D
:101170005B689B009A42EBD1274B1B6803F0070387
:101180003A689A4210D2244B1B6823F00702224986
:101190003B6813430B60204B1B6803F007033A685E
:1011A0009A4201D0012332E07B681B6803F00403FC
:1011B000002B08D0194B5B6823F4E0627B68DB6886
:1011C000164913434B607B681B6803F00803002B30
:1011D00009D0124B5B6823F460527B681B69DB000B
:1011E0000E4913434B6000F021F802460B4B5B683D
:1011F0001B0903F00F030A49CB5C22FA03F3094AE7
:101200001360094B1B681846FFF70EF900231846B8
:101210001037BD4680BD00BF0020024000100240D4
:10122000AC2E0008000000200400002080B487B02D
:1012300000AF0023FB600023BB6000237B61002321
:101240007B6000233B611E4B5B68FB60FB6803F027
:101250000C03042B02D0082B03D027E0194B3B6171
:1012600027E0FB689B0C03F00F03174AD35C7B60FD
:10127000FB6803F48033002B10D0114B5B685B0CD0
:1012800003F00103114AD35CBB607B680D4A03FB8A
:1012900002F2BB68B2FBF3F37B6104E07B680C4AAB
:1012A00002FB03F37B617B693B6102E0054B3B6121
:1012B00000BF3B6918461C37BD4680BC704700BF65
:1012C0000010024000127A00C42E0008D42E00083C
:1012D00000093D0080B400AF024B1B681846BD46B4
:1012E00080BC70470000002080B500AFFFF7F2FF20
:1012F0000246054B5B681B0A03F007030349CB5CFE
:1013000022FA03F3184680BD00100240BC2E0008EC
:1013100080B483B000AF786039607B680F221A60B8
:10132000114B5B6803F003027B685A600E4B5B68ED
:1013300003F0F0027B689A600B4B5B6803F4E06299
:101340007B68DA60084B5B68DB0803F4E0627B686B
:101350001A61064B1B6803F007023B681A6000BF66
:101360000C37BD4680BC7047001002400020024090
:1013700080B485B000AF78600A4B1B680A4AA2FBB4
:1013800003235B0A7A6802FB03F3FB6000BFFB6880
:101390005A1EFA60002BF9D100BF00BF1437BD46BA
:1013A00080BC704700000020D34D621080B582B031
:1013B00000AF78607B68002B01D1012341E07B689E
:1013C00093F83D30DBB2002B06D17B68002283F816
:1013D0003C20786800F039F87B68022283F83D20D1
:1013E0007B681A687B6804331946104600F0B4F92C
:1013F0007B68012283F846207B68012283F83E2027
:101400007B68012283F83F207B68012283F840201B
:101410007B68012283F841207B68012283F8422007
:101420007B68012283F843207B68012283F84420F3
:101430007B68012283F845207B68012283F83D20E8
:10144000002318460837BD4680BD80B483B000AF86
:10145000786000BF0C37BD4680BC704780B485B053
:1014600000AF78607B6893F83D30DBB2012B01D090
:1014700001233AE07B68022283F83D207B681B68E9
:10148000DA687B681B6842F00102DA607B681B68DF
:10149000184A93420ED07B681B68B3F1804F09D085
:1014A0007B681B68144A934204D07B681B68134A0C
:1014B000934211D17B681B689B6803F00703FB60B4
:1014C000FB68062B10D07B681B681A687B681B685A
:1014D00042F001021A6007E07B681B681A687B68AB
:1014E0001B6842F001021A60002318461437BD46FB
:1014F00080BC7047002C0140000400400008004000
:1015000080B582B000AF78607B681B681B6903F010
:101510000203022B22D17B681B68DB6803F0020305
:10152000022B1BD17B681B686FF002021A617B687B
:1015300001221A777B681B689B6903F00303002B69
:1015400003D0786800F0EDF805E0786800F0E0F886
:10155000786800F0EFF87B6800221A777B681B68D8
:101560001B6903F00403042B22D17B681B68DB6832
:1015700003F00403042B1BD17B681B686FF004028B
:101580001A617B6802221A777B681B689B6903F4E7
:101590004073002B03D0786800F0C3F805E078684A
:1015A00000F0B6F8786800F0C5F87B6800221A777A
:1015B0007B681B681B6903F00803082B22D17B683A
:1015C0001B68DB6803F00803082B1BD17B681B68D2
:1015D0006FF008021A617B6804221A777B681B6827
:1015E000DB6903F00303002B03D0786800F099F85F
:1015F00005E0786800F08CF8786800F09BF87B686C
:1016000000221A777B681B681B6903F01003102BFC
:1016100022D17B681B68DB6803F01003102B1BD101
:101620007B681B686FF010021A617B6808221A77CA
:101630007B681B68DB6903F44073002B03D0786878
:1016400000F06FF805E0786800F062F8786800F064
:1016500071F87B6800221A777B681B681B6903F0AE
:101660000103012B0ED17B681B68DB6803F00103CB
:10167000012B07D17B681B686FF001021A61786843
:10168000FEF782FE7B681B681B6903F08003802BDA
:101690000ED17B681B68DB6803F08003802B07D1C9
:1016A0007B681B686FF080021A61786800F0BFF8F1
:1016B0007B681B681B6903F04003402B0ED17B68DD
:1016C0001B68DB6803F04003402B07D17B681B6875
:1016D0006FF040021A61786800F035F87B681B688B
:1016E0001B6903F02003202B0ED17B681B68DB688D
:1016F00003F02003202B07D17B681B686FF02002CA
:101700001A61786800F08AF800BF0837BD4680BDCE
:1017100080B483B000AF786000BF0C37BD4680BC9A
:10172000704780B483B000AF786000BF0C37BD460F
:1017300080BC704780B483B000AF786000BF0C37C6
:10174000BD4680BC704780B483B000AF786000BFF6
:101750000C37BD4680BC704780B485B000AF786060
:1017600039607B681B68FB607B68294A93420BD019
:101770007B68B3F1804F07D07B68264A934203D041
:101780007B68254A934208D1FB6823F07003FB6015
:101790003B685B68FA681343FB607B681C4A9342B2
:1017A0000BD07B68B3F1804F07D07B68194A934216
:1017B00003D07B68184A934208D1FB6823F4407336
:1017C000FB603B68DB68FA681343FB60FB6823F04F
:1017D00080023B685B691343FB607B68FA681A60B0
:1017E0003B689A687B68DA623B681A687B689A6231
:1017F0007B68074A934203D13B681A697B681A6386
:101800007B6801225A6100BF1437BD4680BC704717
:10181000002C0140000400400008004080B483B068
:1018200000AF786000BF0C37BD4680BC704780B405
:1018300083B000AF786000BF0C37BD4680BC7047F6
:1018400080B485B000AF0346FB800023FB60B7F98E
:101850000630842B05D0B7F90620FB681344033308
:10186000FB60FB6818461437BD4680BC704780B5E6
:1018700000AF00F0EFFA0023184680BDF0B589B044
:1018800004AF786039607B685B69002B20D07B688F
:101890009B69002B1CD07B685C687B681D687B683B
:1018A0001E697B68B3F908301846FFF7C9FF014687
:1018B0007B685B697A6892690292019300913B6848
:1018C00032462946204600F0E8F80346FB601CE05B
:1018D0007B685C687B681D687B681B699EB27B685F
:1018E000B3F908301846FFF7ABFF024607F10C03C7
:1018F000019300923B6832462946204600F02CF9BD
:101900000346012B01D0002300E0FB681846143782
:10191000BD46F0BD80B584B000AF78607B68FB60E9
:10192000FB68002B01D0FB6800E00123184600F0A3
:101930005BFA002318461037BD4680BD80B483B0E3
:1019400000AF78607B6803F108027B685A607B68AF
:101950004FF0FF329A607B6803F108027B68DA601F
:101960007B6803F108027B681A617B6800221A60B9
:1019700000BF0C37BD4680BC704780B483B000AF59
:1019800078607B6800221A6100BF0C37BD4680BCBE
:10199000704780B485B000AF786039607B685B6861
:1019A000FB603B68FA685A60FB689A683B689A601B
:1019B000FB689B683A685A60FB683A689A603B68C3
:1019C0007A681A617B681B685A1C7B681A6000BFC2
:1019D0001437BD4680BC704780B485B000AF7860D6
:1019E00039603B681B68BB60BB68B3F1FF3F03D144
:1019F0007B681B69FB600CE07B680833FB6002E0DE
:101A0000FB685B68FB60FB685B681B68BA689A42AE
:101A1000F6D2FB685A683B685A603B685B683A6874
:101A20009A603B68FA689A60FB683A685A603B685B
:101A30007A681A617B681B685A1C7B681A6000BF51
:101A40001437BD4680BC704780B485B000AF786065
:101A50007B681B69FB607B685B687A6892689A6048
:101A60007B689B687A6852685A60FB685B687A6832
:101A70009A4203D17B689A68FB685A607B680022AF
:101A80001A61FB681B685A1EFB681A60FB681B68BA
:101A900018461437BD4680BC704780B58EB004AF81
:101AA000F860B9607A603B607B6B002B0BD14FF024
:101AB000500383F31188BFF36F8FBFF34F8F3B62E7
:101AC00000BF00BFFDE7BB6B002B0BD14FF05003F5
:101AD00083F31188BFF36F8FBFF34F8FFB6100BF9C
:101AE00000BFFDE7A0233B613B69A02B0BD04FF06B
:101AF000500383F31188BFF36F8FBFF34F8FBB6128
:101B000000BF00BFFDE7BB6B002B1ED07B6B002B23
:101B10001BD0BB6B7B627B6A7A6B1A637B6A022287
:101B200083F89D20002303937B6A029307F114033B
:101B300001933B6B00933B687A68B968F86800F0E2
:101B400051F8786A00F0E6F801E000237B617B69D8
:101B500018462837BD4680BD80B58CB004AFF8600C
:101B6000B9603B601346FB80FB889B00184600F081
:101B70009FFE78617B69002B0ED0A02000F098FEBC
:101B8000F861FB69002B03D0FB697A691A6305E0F1
:101B9000786900F055FF01E00023FB61FB69002B31
:101BA00017D0FB69002283F89D20FA880023039355
:101BB000FB690293FB6A0193BB6A00933B68B968B7
:101BC000F86800F00FF8F86900F0A4F80123BB6191
:101BD00002E04FF0FF33BB61BB6918462037BD46BA
:101BE00080BD000080B588B000AFF860B9607A6051
:101BF0003B603B6B1A6B7B6803F18043013B9B00AE
:101C00001344BB61BB6923F00703BB61BB6903F0ED
:101C10000703002B0BD04FF0500383F31188BFF361
:101C20006F8FBFF34F8F7B6100BF00BFFDE70023C5
:101C3000FB6112E0BA68FB69134419783A6BFB69DF
:101C4000134434330A461A70BA68FB6913441B788C
:101C5000002B06D0FB690133FB61FB690F2BE9D92F
:101C600000E000BF3B6B002283F84320BB6A062BD9
:101C700001D90623BB623B6BBA6ADA623B6BBA6A74
:101C80005A643B6B00229A643B6B04331846FFF79F
:101C900074FE3B6B18331846FFF76FFE3B6B3A6BD5
:101CA0001A61BB6AC3F107023B6B9A613B6B3A6BEB
:101CB0005A623B6B0022C3F898203B6B002283F8EA
:101CC0009C203B6B4C334C220021184600F0CEFF89
:101CD0003B6B0D4A1A653B6B0C4A5A653B6B0C4AD1
:101CE0009A653A68F968B86900F030FC02463B6BC7
:101CF0001A60FB6A002B02D0FB6A3A6B1A6000BFC5
:101D00002037BD4680BD00BFC01000202811002034
:101D10009011002080B582B000AF786000F006FD21
:101D20002A4B1B680133294A1360294B1B68002B7F
:101D300009D1274A7B681360244B1B68012B10D103
:101D400000F0D6FA0DE0234B1B68002B09D1204B85
:101D50001B68DA6A7B68DB6A9A4202D81C4A7B6895
:101D600013601D4B1B6801331B4A13607B68DB6AE1
:101D700001229A40194B1B681343184A13607B6871
:101D8000DA6A13469B0013449B00154A1A447B6889
:101D9000043319461046FFF7FCFD00F0F7FC0D4B2D
:101DA0001B68002B0ED00A4B1B68DA6A7B68DB6A63
:101DB0009A4207D20B4B4FF080521A60BFF34F8FFD
:101DC000BFF36F8F00BF0837BD4680BD740400208D
:101DD0007403002080040020900400207C04002074
:101DE0007803002004ED00E080B584B000AF786097
:101DF0000023FB607B68002B18D0144B1B68002B62
:101E00000BD04FF0500383F31188BFF36F8FBFF3F4
:101E10004F8FBB6000BF00BFFDE700F085F80021D9
:101E2000786800F02DFB00F08DF8F860FB68002B5F
:101E300007D1074B4FF080521A60BFF34F8FBFF3AB
:101E40006F8F00BF1037BD4680BD00BF9C040020CF
:101E500004ED00E080B58AB004AF0023BB6000232E
:101E60007B603A46391D07F108031846FEF770F902
:101E700039687B68BA6802920193002300930023BB
:101E80000A4621492148FFF708FE0346204A13600D
:101E90001F4B1B68002B02D001237B6101E0002354
:101EA0007B617B69012B1BD14FF0500383F31188B9
:101EB000BFF36F8FBFF34F8F3B6100BF154B1B68A4
:101EC0004C33154A1360154B4FF0FF321A60144B18
:101ED00001221A60134B00221A6000F0B5FB0FE0DC
:101EE0007B69B3F1FF3F0BD14FF0500383F31188AF
:101EF000BFF36F8FBFF34F8FFB6000BF00BFFDE7E5
:101F000000BF1837BD4680BDA42E0008C1220008BE
:101F10009804002074030020100000209404002086
:101F2000800400207804002080B400AF044B1B68BC
:101F30000133034A136000BFBD4680BC704700BF39
:101F40009C04002080B584B000AF0023FB60002318
:101F5000BB60424B1B68002B0BD14FF0500383F347
:101F60001188BFF36F8FBFF34F8F3B6000BF00BF7F
:101F7000FDE700F0DBFB394B1B68013B374A136080
:101F8000364B1B68002B61D1354B1B68002B5DD095
:101F90002EE0344BDB68DB68FB60FB6818331846C7
:101FA000FFF752FDFB6804331846FFF74DFDFB6851
:101FB000DB6A01229A402C4B1B6813432A4A1360A8
:101FC000FB68DA6A13469B0013449B00274A1A44B5
:101FD000FB68043319461046FFF7DBFCFB68DA6A3E
:101FE000234B1B68DB6A9A4202D3224B01221A6000
:101FF0001C4B1B68002BCCD1FB68002B01D000F0E0
:102000001BFA1D4B1B687B607B68002B10D000F017
:1020100037F80346002B02D0164B01221A607B686A
:10202000013B7B607B68002BF1D1134B00221A60CF
:10203000104B1B68002B09D00123BB600F4B4FF0E6
:1020400080521A60BFF34F8FBFF36F8F00F09EFB7B
:10205000BB6818461037BD4680BD00BF9C040020F9
:1020600074040020340400207C0400207803002045
:1020700074030020880400208404002004ED00E0A4
:1020800080B586B000AF00237B61514B1B68002BED
:1020900040F08E804F4B1B6801333B614D4A3B69DA
:1020A00013603B69002B21D14B4B1B681B68002B35
:1020B0000BD04FF0500383F31188BFF36F8FBFF342
:1020C0004F8F3B6000BF00BFFDE7434B1B68FB60C9
:1020D000424B1B68404A1360404AFB681360404B08
:1020E0001B6801333E4A136000F0A6F93D4B1B68A4
:1020F0003A699A424DD3384B1B681B68002B01D1BB
:10210000012300E00023002B04D0364B4FF0FF32B8
:102110001A603EE0304B1B68DB68DB68BB60BB6865
:102120005B687B603A697B689A4203D22D4A7B6880
:1021300013602EE0BB6804331846FFF785FCBB68CC
:102140009B6A002B04D0BB6818331846FFF77CFC51
:10215000BB68DB6A01229A40234B1B681343224A67
:102160001360BB68DA6A13469B0013449B001F4A46
:102170001A44BB68043319461046FFF70AFCBB68D3
:10218000DA6A1B4B1B68DB6A9A42B4D301237B617A
:10219000B1E7174B1B68DA6A144913469B001344D6
:1021A0009B000B441B68012B07D901237B6104E0D2
:1021B000104B1B6801330F4A13600F4B1B68002B39
:1021C00001D001237B617B6918461837BD4680BD6D
:1021D0009C040020780400202C04002030040020FF
:1021E0008C040020940400207C040020780300204C
:1021F00074030020840400208804002080B487B089
:1022000000AF294B1B68002B03D0284B01221A601A
:1022100045E0264B00221A60254B1B68FB60FB68DB
:10222000B3FA83F3FB72FB7AC3F11F037B6121498D
:102230007A6913469B0013449B000B441B68002BD8
:102240000BD14FF0500383F31188BFF36F8FBFF3AF
:102250004F8F7B6000BF00BFFDE77A6913469B008C
:1022600013449B00134A13443B613B695B685A6803
:102270003B695A603B695A683B6908339A4204D10A
:102280003B695B685A683B695A603B695B68DB681D
:10229000094A1360084B1B684C33084A136000BF9F
:1022A0001C37BD4680BC70479C0400208804002079
:1022B0007C0400207803002074030020100000201C
:1022C00080B582B000AF786000F052F8064B1B6812
:1022D000012BF9D9054B4FF080521A60BFF34F8F95
:1022E000BFF36F8FF0E700BF7803002004ED00E03C
:1022F00080B582B000AF00237B600CE07A681346A3
:102300009B0013449B00124A13441846FFF716FB28
:102310007B6801337B607B68062BEFD90D48FFF7A4
:102320000DFB0D48FFF70AFB0C48FFF707FB0C48B5
:10233000FFF704FB0B48FFF701FB0B4B054A1A6044
:102340000A4B054A1A6000BF0837BD4680BD00BF72
:102350007803002004040020180400203404002026
:1023600048040020600400202C04002030040020D9
:1023700080B582B000AF19E000F0D8F9104BDB68EF
:10238000DB687B607B6804331846FFF75DFB0D4B11
:102390001B68013B0B4A13600B4B1B68013B0A4A4D
:1023A000136000F0F3F9786800F010F8064B1B6832
:1023B000002BE1D100BF00BF0837BD4680BD00BF84
:1023C00048040020740400205C04002080B584B020
:1023D00000AF78607B684C33184600F04FFC7B6898
:1023E00093F89D30002B08D17B681B6B184600F0DA
:1023F00027FB786800F024FB19E07B6893F89D3098
:10240000012B03D1786800F01BFB10E07B6893F888
:102410009D30022B0BD04FF0500383F31188BFF394
:102420006F8FBFF34F8FFB6000BF00BFFDE700BFA2
:102430001037BD4680BD000080B483B000AF0E4BA6
:102440001B681B68002B01D1012300E00023002B37
:1024500004D00A4B4FF0FF321A6008E0064B1B68AD
:10246000DB68DB687B607B685B68044A136000BFE5
:102470000C37BD4680BC70472C040020940400201B
:1024800080B584B000AF78603960294B1B68FB6071
:10249000284B1B6804331846FFF7D6FA0346002B77
:1024A0000BD1244B1B68DB6A012202FA03F3DA43E7
:1024B000214B1B681340204A13607B68B3F1FF3F38
:1024C0000AD13B68002B07D01A4B1B68043319460E
:1024D0001A48FFF75EFA26E0FA687B681344BB608F
:1024E000144B1B68BA685A60BA68FB689A4209D2F2
:1024F000134B1A680F4B1B68043319461046FFF73D
:102500006BFA10E00F4B1A680A4B1B68043319462C
:102510001046FFF761FA0C4B1B68BA689A4202D268
:10252000094ABB68136000BF1037BD4680BD00BFBD
:1025300078040020740300207C0400206004002044
:10254000300400202C0400209404002080B485B0C6
:1025500000AFF860B9607A60FB68043BFB60FB6821
:102560004FF080721A60FB68043BFB60BB6823F08D
:102570000102FB681A60FB68043BFB60084AFB68C9
:102580001A60FB68143BFB607A68FB681A60FB68A2
:10259000203BFB60FB6818461437BD4680BC704783
:1025A000A525000880B485B000AF00237B60124BE6
:1025B0001B68B3F1FF3F0BD04FF0500383F311883A
:1025C000BFF36F8FBFF34F8FFB6000BF00BFFDE70E
:1025D0004FF0500383F31188BFF36F8FBFF34F8F1A
:1025E000BB6000BF00BF7B68002BFCD000BF00BFFA
:1025F0001437BD4680BC70470C000020000000006E
:10260000074B19680868B0E8F00F80F30988BFF33A
:102610006F8F4FF0000080F311884EF00D0E704761
:102620007403002000BF00BF06480068006880F304
:10263000088862B661B6BFF34F8FBFF36F8F00DFBC
:1026400000BF00BF08ED00E080B584B000AF324BA2
:10265000FB60FB681B78DBB27B60FB68FF221A70B3
:10266000FB681B78DBB2FB70FB78DBB203F0500336
:10267000DAB22A4B1A702A4B07221A6009E0284B5B
:102680001B68013B264A1360FB78DBB25B00DBB2C0
:10269000FB70FB78DBB203F08003802BEFD0204B84
:1026A0001B68C3F10703042B0BD04FF0500383F3D7
:1026B0001188BFF36F8FBFF34F8FBB6000BF00BFA8
:1026C000FDE7174B1B681B02154A1360144B1B6870
:1026D00003F4E063124A13607B68DAB2FB681A7095
:1026E000104B1B680F4A43F4700313600D4B1B68BB
:1026F0000C4A43F07043136000F0B8F80A4B002214
:102700001A60FFF791FFFFF779FDFFF74BFF0023FA
:1027100018461037BD4680BD00E400E0A00400204C
:10272000A404002020ED00E00C00002080B483B061
:1027300000AF4FF0500383F31188BFF36F8FBFF3E7
:102740004F8F7B6000BF0F4B1B6801330D4A136036
:102750000C4B1B68012B10D10B4B1B68DBB2002B01
:102760000BD04FF0500383F31188BFF36F8FBFF38B
:102770004F8F3B6000BF00BFFDE700BF0C37BD4679
:1027800080BC70470C00002004ED00E080B483B0F2
:1027900000AF124B1B68002B0BD14FF0500383F39B
:1027A0001188BFF36F8FBFF34F8F7B6000BF00BFF7
:1027B000FDE70A4B1B68013B084A1360074B1B6887
:1027C000002B05D100233B603B6883F3118800BFD9
:1027D00000BF0C37BD4680BC704700BF0C00002016
:1027E000EFF30980BFF36F8F0D4B1A6820E9F00FEC
:1027F00010602DE908404FF0500080F31188FFF77A
:10280000FDFC4FF0000080F31188BDE80840196816
:102810000868B0E8F00F80F30988BFF36F8F704746
:102820007403002000BF00BF80B582B000AF4FF03E
:10283000500383F31188BFF36F8FBFF34F8F7B601B
:1028400000BFFFF71DFC0346002B03D0064B4FF0E3
:1028500080521A6000233B603B6883F3118800BFFD
:1028600000BF0837BD4680BD04ED00E080B400AF76
:102870000A4B00221A600A4B00221A60094B1B689F
:10288000094AA2FB03239B09084A013B1360034B3F
:1028900007221A6000BFBD4680BC704710E000E010
:1028A00018E000E000000020D34D621014E000E0CA
:1028B00080B58AB000AF78600023FB61FFF734FB7E
:1028C0005A4B1B68002B01D100F016F9584B1A68BF
:1028D0007B681340002B40F090807B68002B1ED05B
:1028E00008227B6813447B607B6803F00703002B9E
:1028F00015D07B6823F0070308337B607B6803F007
:102900000703002B0BD04FF0500383F31188BFF364
:102910006F8FBFF34F8F7B6100BF00BFFDE77B6808
:10292000002B6AD0434B1B687A689A4265D8424BA9
:102930003B62414B1B687B6204E07B6A3B627B6AC3
:102940001B687B627B6A5B687A689A4203D97B6A00
:102950001B68002BF1D1354B1B687A6A9A424CD028
:102960003B6A1B6808221344FB617B6A1A683B6A56
:102970001A607B6A5A687B68D21A08235B009A4205
:1029800020D97A6A7B681344BB61BB6903F00703F3
:10299000002B0BD04FF0500383F31188BFF36F8FE0
:1029A000BFF34F8F3B6100BF00BFFDE77B6A5A68F2
:1029B0007B68D21ABB695A607B6A7A685A60B869C8
:1029C00000F0FCF81B4B1A687B6A5B68D31A194A43
:1029D0001360184B1A68194B1B689A4203D2154BA7
:1029E0001B68164A13607B6A5A68114B1B681A43AE
:1029F0007B6A5A607B6A00221A60FFF7A3FAFB69C0
:102A000003F00703002B0BD04FF0500383F3118822
:102A1000BFF36F8FBFF34F8FFB6000BF00BFFDE7B9
:102A2000FB6918462837BD4680BD00BFB0100020A6
:102A3000BC100020B4100020A8100020B810002006
:102A400080B586B000AF78607B687B617B68002BC7
:102A50004AD008235B427A6913447B617B693B61FE
:102A60003B695A68224B1B681340002B0BD14FF077
:102A7000500383F31188BFF36F8FBFF34F8FFB6059
:102A800000BF00BFFDE73B691B68002B0BD04FF078
:102A9000500383F31188BFF36F8FBFF34F8FBB6079
:102AA00000BF00BFFDE73B695A68114B1B6813402C
:102AB000002B19D03B691B68002B15D13B695A6864
:102AC0000B4B1B68DB431A403B695A60FFF72CFA3B
:102AD0003B695A68074B1B681344064A1360386900
:102AE00000F06CF8FFF72EFA00BF1837BD4680BD26
:102AF000BC100020B410002080B485B000AF4FF4AB
:102B00004063BB60274BFB60FB6803F00703002BAF
:102B10000CD0FB680733FB60FB6823F00703FB6006
:102B2000BA68FB68D31A1F4A1344BB60FB687B601A
:102B30001D4A7B6813601C4B00225A607B68BA6890
:102B40001344FB600822FB689B1AFB60FB6823F0C0
:102B50000703FB60FB68154A1360144B1B680022D7
:102B60005A60124B1B6800221A607B683B603B680E
:102B7000FA68D21A3B685A600C4B1A683B681A60B4
:102B80003B685B680A4A13603B685B68094A1360EC
:102B9000094B4FF000421A6000BF1437BD4680BC9D
:102BA000704700BFA8040020A8100020B01000202B
:102BB000B8100020B4100020BC10002080B485B0F4
:102BC00000AF7860274BFB6002E0FB681B68FB608E
:102BD000FB681B687A689A42F7D8FB68BB60FB68A1
:102BE0005B68BA6813447A689A4208D1FB685A68ED
:102BF0007B685B681A44FB685A60FB687B607B6893
:102C0000BB607B685B68BA681A44FB681B689A42C1
:102C100018D1FB681A68144B1B689A420DD07B6868
:102C20005A68FB681B685B681A447B685A60FB68DB
:102C30001B681A687B681A6008E00B4B1A687B688F
:102C40001A6003E0FB681A687B681A60FA687B68A0
:102C50009A4202D0FB687A681A6000BF1437BD46FA
:102C600080BC7047A8100020B0100020034602442A
:102C7000934200D1704703F8011BF9E7294B70B567
:102C80001B68044683424BD0C369ABB1DB686BB1B0
:102C90000025E369DB68595900293BD10435802DB3
:102CA000F7D1E3692046D96800F064F8E369196850
:102CB00011B1204600F05EF8616911B1204600F0C4
:102CC00059F8E16911B1204600F054F8216B11B1B7
:102CD000204600F04FF8616B11B1204600F04AF831
:102CE000A16B11B1204600F045F8A16C11B120464E
:102CF00000F040F8616C11B1204600F03BF8E16A49
:102D000011B1204600F036F8236A4BB12046BDE8E9
:102D1000704018470E68204600F02CF83146BBE79B
:102D200070BD00BF1000002070B500260C4D0D4C8A
:102D3000641BA410A64209D100F070F800260A4DC9
:102D40000A4C641BA410A64205D170BD55F8043B83
:102D500098470136EEE755F8043B98470136F2E70D
:102D6000D82E0008D82E0008D82E0008DC2E000827
:102D70007047704738B50546002940D051F8043CEB
:102D80000C1F002BB8BFE41800F03CF81C4A136875
:102D900033B9636014602846BDE8384000F038B8A5
:102DA000A34208D9206821188B4201BF19685B68CB
:102DB00009182160EDE71A465B680BB1A342FAD906
:102DC00011685018A0420BD120680144501883426A
:102DD0001160E0D118685B68084410605360DAE75E
:102DE00002D90C232B60D6E7206821188B4201BF43
:102DF00019685B680918216063605460CBE738BDCF
:102E0000FC1100200148FFF7B3BF00BFF8110020FC
:102E10000148FFF7AEBF00BFF8110020F8B500BFB2
:102E2000F8BC08BC9E467047F8B500BFF8BC08BCAB
:042E30009E46704703
:102E34007265644C65640000342E000829030008A0
:102E440000000000000000008000000000000000FE
:102E540000000000677265656E4C65640000000048
:102E6400582E00084903000800000000000000007C
:102E7400800000000000000000000000626C756526
:102E84004C656400802E00086903000800000000FF
:102E940000000000800000000000000000000000AE
:102EA40049444C4500000000000000000000000000
:102EB40001020304060708090000000001020304DC
:102EC40002030405060708090A0B0C0D0E0F101067
:042ED40001020000F7
:042ED80035010008B8
:042EDC0011010008D8
:102EE0000024F4001000000001000000AAAAAAAA11
:102EF0001400002000000000C01000202811002055
:102F00009011002000000000000000000000000000
:102F100000000000000000000000000000000000B1
:102F200000000000000000000000000000000000A1
:102F30000000000000000000000000000000000091
:040000050800057971
:00000001FF
